{
  "_format": "hh-sol-artifact-1",
  "contractName": "Sample721",
  "sourceName": "contracts/starman/v3/Sample721.sol",
  "abi": [
    {
      "inputs": [],
      "stateMutability": "nonpayable",
      "type": "constructor"
    },
    {
      "anonymous": false,
      "inputs": [
        {
          "indexed": true,
          "internalType": "address",
          "name": "owner",
          "type": "address"
        },
        {
          "indexed": true,
          "internalType": "address",
          "name": "approved",
          "type": "address"
        },
        {
          "indexed": true,
          "internalType": "uint256",
          "name": "tokenId",
          "type": "uint256"
        }
      ],
      "name": "Approval",
      "type": "event"
    },
    {
      "anonymous": false,
      "inputs": [
        {
          "indexed": true,
          "internalType": "address",
          "name": "owner",
          "type": "address"
        },
        {
          "indexed": true,
          "internalType": "address",
          "name": "operator",
          "type": "address"
        },
        {
          "indexed": false,
          "internalType": "bool",
          "name": "approved",
          "type": "bool"
        }
      ],
      "name": "ApprovalForAll",
      "type": "event"
    },
    {
      "anonymous": false,
      "inputs": [
        {
          "indexed": true,
          "internalType": "address",
          "name": "from",
          "type": "address"
        },
        {
          "indexed": true,
          "internalType": "address",
          "name": "to",
          "type": "address"
        },
        {
          "indexed": true,
          "internalType": "uint256",
          "name": "tokenId",
          "type": "uint256"
        }
      ],
      "name": "Transfer",
      "type": "event"
    },
    {
      "inputs": [
        {
          "internalType": "address",
          "name": "to",
          "type": "address"
        },
        {
          "internalType": "uint256",
          "name": "tokenId",
          "type": "uint256"
        }
      ],
      "name": "approve",
      "outputs": [],
      "stateMutability": "nonpayable",
      "type": "function"
    },
    {
      "inputs": [
        {
          "internalType": "address",
          "name": "owner",
          "type": "address"
        }
      ],
      "name": "balanceOf",
      "outputs": [
        {
          "internalType": "uint256",
          "name": "",
          "type": "uint256"
        }
      ],
      "stateMutability": "view",
      "type": "function"
    },
    {
      "inputs": [],
      "name": "counter",
      "outputs": [
        {
          "internalType": "uint256",
          "name": "",
          "type": "uint256"
        }
      ],
      "stateMutability": "view",
      "type": "function"
    },
    {
      "inputs": [
        {
          "internalType": "uint256",
          "name": "tokenId",
          "type": "uint256"
        }
      ],
      "name": "getApproved",
      "outputs": [
        {
          "internalType": "address",
          "name": "",
          "type": "address"
        }
      ],
      "stateMutability": "view",
      "type": "function"
    },
    {
      "inputs": [
        {
          "internalType": "address",
          "name": "owner",
          "type": "address"
        },
        {
          "internalType": "address",
          "name": "operator",
          "type": "address"
        }
      ],
      "name": "isApprovedForAll",
      "outputs": [
        {
          "internalType": "bool",
          "name": "",
          "type": "bool"
        }
      ],
      "stateMutability": "view",
      "type": "function"
    },
    {
      "inputs": [],
      "name": "name",
      "outputs": [
        {
          "internalType": "string",
          "name": "",
          "type": "string"
        }
      ],
      "stateMutability": "view",
      "type": "function"
    },
    {
      "inputs": [
        {
          "internalType": "uint256",
          "name": "tokenId",
          "type": "uint256"
        }
      ],
      "name": "ownerOf",
      "outputs": [
        {
          "internalType": "address",
          "name": "",
          "type": "address"
        }
      ],
      "stateMutability": "view",
      "type": "function"
    },
    {
      "inputs": [
        {
          "internalType": "address",
          "name": "from",
          "type": "address"
        },
        {
          "internalType": "address",
          "name": "to",
          "type": "address"
        },
        {
          "internalType": "uint256",
          "name": "tokenId",
          "type": "uint256"
        }
      ],
      "name": "safeTransferFrom",
      "outputs": [],
      "stateMutability": "nonpayable",
      "type": "function"
    },
    {
      "inputs": [
        {
          "internalType": "address",
          "name": "from",
          "type": "address"
        },
        {
          "internalType": "address",
          "name": "to",
          "type": "address"
        },
        {
          "internalType": "uint256",
          "name": "tokenId",
          "type": "uint256"
        },
        {
          "internalType": "bytes",
          "name": "data",
          "type": "bytes"
        }
      ],
      "name": "safeTransferFrom",
      "outputs": [],
      "stateMutability": "nonpayable",
      "type": "function"
    },
    {
      "inputs": [
        {
          "internalType": "address",
          "name": "operator",
          "type": "address"
        },
        {
          "internalType": "bool",
          "name": "approved",
          "type": "bool"
        }
      ],
      "name": "setApprovalForAll",
      "outputs": [],
      "stateMutability": "nonpayable",
      "type": "function"
    },
    {
      "inputs": [
        {
          "internalType": "bytes4",
          "name": "interfaceId",
          "type": "bytes4"
        }
      ],
      "name": "supportsInterface",
      "outputs": [
        {
          "internalType": "bool",
          "name": "",
          "type": "bool"
        }
      ],
      "stateMutability": "view",
      "type": "function"
    },
    {
      "inputs": [],
      "name": "symbol",
      "outputs": [
        {
          "internalType": "string",
          "name": "",
          "type": "string"
        }
      ],
      "stateMutability": "view",
      "type": "function"
    },
    {
      "inputs": [
        {
          "internalType": "uint256",
          "name": "tokenId",
          "type": "uint256"
        }
      ],
      "name": "tokenURI",
      "outputs": [
        {
          "internalType": "string",
          "name": "",
          "type": "string"
        }
      ],
      "stateMutability": "view",
      "type": "function"
    },
    {
      "inputs": [
        {
          "internalType": "address",
          "name": "from",
          "type": "address"
        },
        {
          "internalType": "address",
          "name": "to",
          "type": "address"
        },
        {
          "internalType": "uint256",
          "name": "tokenId",
          "type": "uint256"
        }
      ],
      "name": "transferFrom",
      "outputs": [],
      "stateMutability": "nonpayable",
      "type": "function"
    }
  ],
  "bytecode": "0x608060405260006006553480156200001657600080fd5b506040805160208082018352600080835283519182019093528281529091620000408382620000fd565b5060016200004f8282620000fd565b505050620001c9565b634e487b7160e01b600052604160045260246000fd5b600181811c908216806200008357607f821691505b602082108103620000a457634e487b7160e01b600052602260045260246000fd5b50919050565b601f821115620000f857600081815260208120601f850160051c81016020861015620000d35750805b601f850160051c820191505b81811015620000f457828155600101620000df565b5050505b505050565b81516001600160401b0381111562000119576200011962000058565b62000131816200012a84546200006e565b84620000aa565b602080601f831160018114620001695760008415620001505750858301515b600019600386901b1c1916600185901b178555620000f4565b600085815260208120601f198616915b828110156200019a5788860151825594840194600190910190840162000179565b5085821015620001b95787850151600019600388901b60f8161c191681555b5050505050600190811b01905550565b6110ca80620001d96000396000f3fe608060405234801561001057600080fd5b50600436106100ba5760003560e01c806301ffc9a7146100bf57806306fdde03146100e7578063081812fc146100fc578063095ea7b31461012757806323b872dd1461013c57806342842e0e1461014f57806361bc221a146101625780636352211e1461017957806370a082311461018c57806395d89b411461019f578063a22cb465146101a7578063b88d4fde146101ba578063c87b56dd146101cd578063e985e9c5146101e0575b600080fd5b6100d26100cd366004610c24565b6101f3565b60405190151581526020015b60405180910390f35b6100ef610245565b6040516100de9190610c91565b61010f61010a366004610ca4565b6102d7565b6040516001600160a01b0390911681526020016100de565b61013a610135366004610cd9565b6102fe565b005b61013a61014a366004610d03565b610418565b61013a61015d366004610d03565b610449565b61016b60065481565b6040519081526020016100de565b61010f610187366004610ca4565b610464565b61016b61019a366004610d3f565b610498565b6100ef61051e565b61013a6101b5366004610d5a565b61052d565b61013a6101c8366004610dac565b61053c565b6100ef6101db366004610ca4565b610574565b6100d26101ee366004610e88565b6105e8565b60006001600160e01b031982166380ac58cd60e01b148061022457506001600160e01b03198216635b5e139f60e01b145b8061023f57506301ffc9a760e01b6001600160e01b03198316145b92915050565b60606000805461025490610ebb565b80601f016020809104026020016040519081016040528092919081815260200182805461028090610ebb565b80156102cd5780601f106102a2576101008083540402835291602001916102cd565b820191906000526020600020905b8154815290600101906020018083116102b057829003601f168201915b5050505050905090565b60006102e282610616565b506000908152600460205260409020546001600160a01b031690565b600061030982610464565b9050806001600160a01b0316836001600160a01b03160361037b5760405162461bcd60e51b815260206004820152602160248201527f4552433732313a20617070726f76616c20746f2063757272656e74206f776e656044820152603960f91b60648201526084015b60405180910390fd5b336001600160a01b0382161480610397575061039781336105e8565b6104095760405162461bcd60e51b815260206004820152603d60248201527f4552433732313a20617070726f76652063616c6c6572206973206e6f7420746f60448201527f6b656e206f776e6572206f7220617070726f76656420666f7220616c6c0000006064820152608401610372565b610413838361063e565b505050565b61042233826106ac565b61043e5760405162461bcd60e51b815260040161037290610ef5565b61041383838361070b565b6104138383836040518060200160405280600081525061053c565b6000806104708361086f565b90506001600160a01b03811661023f5760405162461bcd60e51b815260040161037290610f42565b60006001600160a01b0382166105025760405162461bcd60e51b815260206004820152602960248201527f4552433732313a2061646472657373207a65726f206973206e6f7420612076616044820152683634b21037bbb732b960b91b6064820152608401610372565b506001600160a01b031660009081526003602052604090205490565b60606001805461025490610ebb565b61053833838361088a565b5050565b61054633836106ac565b6105625760405162461bcd60e51b815260040161037290610ef5565b61056e84848484610954565b50505050565b606061057f82610616565b600061059660408051602081019091526000815290565b905060008151116105b657604051806020016040528060008152506105e1565b806105c084610987565b6040516020016105d1929190610f74565b6040516020818303038152906040525b9392505050565b6001600160a01b03918216600090815260056020908152604080832093909416825291909152205460ff1690565b61061f81610a1a565b61063b5760405162461bcd60e51b815260040161037290610f42565b50565b600081815260046020526040902080546001600160a01b0319166001600160a01b038416908117909155819061067382610464565b6001600160a01b03167f8c5be1e5ebec7d5bd14f71427d1e84f3dd0314c0f7b2291e5b200ac8c7c3b92560405160405180910390a45050565b6000806106b883610464565b9050806001600160a01b0316846001600160a01b031614806106df57506106df81856105e8565b806107035750836001600160a01b03166106f8846102d7565b6001600160a01b0316145b949350505050565b826001600160a01b031661071e82610464565b6001600160a01b0316146107445760405162461bcd60e51b815260040161037290610fa3565b6001600160a01b0382166107a65760405162461bcd60e51b8152602060048201526024808201527f4552433732313a207472616e7366657220746f20746865207a65726f206164646044820152637265737360e01b6064820152608401610372565b826001600160a01b03166107b982610464565b6001600160a01b0316146107df5760405162461bcd60e51b815260040161037290610fa3565b600081815260046020908152604080832080546001600160a01b03199081169091556001600160a01b0387811680865260038552838620805460001901905590871680865283862080546001019055868652600290945282852080549092168417909155905184937fddf252ad1be2c89b69c2b068fc378daa952ba7f163c4a11628f55a4df523b3ef91a4505050565b6000908152600260205260409020546001600160a01b031690565b816001600160a01b0316836001600160a01b0316036108e75760405162461bcd60e51b815260206004820152601960248201527822a9219b99189d1030b8383937bb32903a379031b0b63632b960391b6044820152606401610372565b6001600160a01b03838116600081815260056020908152604080832094871680845294825291829020805460ff191686151590811790915591519182527f17307eab39ab6107e8899845ad3d59bd9653f200f220920489ca2b5937696c31910160405180910390a3505050565b61095f84848461070b565b61096b84848484610a37565b61056e5760405162461bcd60e51b815260040161037290610fe8565b6060600061099483610b38565b600101905060008167ffffffffffffffff8111156109b4576109b4610d96565b6040519080825280601f01601f1916602001820160405280156109de576020820181803683370190505b5090508181016020015b600019016f181899199a1a9b1b9c1cb0b131b232b360811b600a86061a8153600a85049450846109e857509392505050565b600080610a268361086f565b6001600160a01b0316141592915050565b60006001600160a01b0384163b15610b2d57604051630a85bd0160e11b81526001600160a01b0385169063150b7a0290610a7b90339089908890889060040161103a565b6020604051808303816000875af1925050508015610ab6575060408051601f3d908101601f19168201909252610ab391810190611077565b60015b610b13573d808015610ae4576040519150601f19603f3d011682016040523d82523d6000602084013e610ae9565b606091505b508051600003610b0b5760405162461bcd60e51b815260040161037290610fe8565b805181602001fd5b6001600160e01b031916630a85bd0160e11b149050610703565b506001949350505050565b60008072184f03e93ff9f4daa797ed6e38ed64bf6a1f0160401b8310610b775772184f03e93ff9f4daa797ed6e38ed64bf6a1f0160401b830492506040015b6904ee2d6d415b85acef8160201b8310610ba1576904ee2d6d415b85acef8160201b830492506020015b662386f26fc100008310610bbf57662386f26fc10000830492506010015b6305f5e1008310610bd7576305f5e100830492506008015b6127108310610beb57612710830492506004015b60648310610bfd576064830492506002015b600a831061023f5760010192915050565b6001600160e01b03198116811461063b57600080fd5b600060208284031215610c3657600080fd5b81356105e181610c0e565b60005b83811015610c5c578181015183820152602001610c44565b50506000910152565b60008151808452610c7d816020860160208601610c41565b601f01601f19169290920160200192915050565b6020815260006105e16020830184610c65565b600060208284031215610cb657600080fd5b5035919050565b80356001600160a01b0381168114610cd457600080fd5b919050565b60008060408385031215610cec57600080fd5b610cf583610cbd565b946020939093013593505050565b600080600060608486031215610d1857600080fd5b610d2184610cbd565b9250610d2f60208501610cbd565b9150604084013590509250925092565b600060208284031215610d5157600080fd5b6105e182610cbd565b60008060408385031215610d6d57600080fd5b610d7683610cbd565b915060208301358015158114610d8b57600080fd5b809150509250929050565b634e487b7160e01b600052604160045260246000fd5b60008060008060808587031215610dc257600080fd5b610dcb85610cbd565b9350610dd960208601610cbd565b925060408501359150606085013567ffffffffffffffff80821115610dfd57600080fd5b818701915087601f830112610e1157600080fd5b813581811115610e2357610e23610d96565b604051601f8201601f19908116603f01168101908382118183101715610e4b57610e4b610d96565b816040528281528a6020848701011115610e6457600080fd5b82602086016020830137600060208483010152809550505050505092959194509250565b60008060408385031215610e9b57600080fd5b610ea483610cbd565b9150610eb260208401610cbd565b90509250929050565b600181811c90821680610ecf57607f821691505b602082108103610eef57634e487b7160e01b600052602260045260246000fd5b50919050565b6020808252602d908201527f4552433732313a2063616c6c6572206973206e6f7420746f6b656e206f776e6560408201526c1c881bdc88185c1c1c9bdd9959609a1b606082015260800190565b602080825260189082015277115490cdcc8c4e881a5b9d985b1a59081d1bdad95b88125160421b604082015260600190565b60008351610f86818460208801610c41565b835190830190610f9a818360208801610c41565b01949350505050565b60208082526025908201527f4552433732313a207472616e736665722066726f6d20696e636f72726563742060408201526437bbb732b960d91b606082015260800190565b60208082526032908201527f4552433732313a207472616e7366657220746f206e6f6e20455243373231526560408201527131b2b4bb32b91034b6b83632b6b2b73a32b960711b606082015260800190565b6001600160a01b038581168252841660208201526040810183905260806060820181905260009061106d90830184610c65565b9695505050505050565b60006020828403121561108957600080fd5b81516105e181610c0e56fea26469706673582212206a9e20964aabaf10154d921acfad049634c3632652e6e2099728a33fcfef281464736f6c63430008110033",
  "linkReferences": {},
  "deployedLinkReferences": {}
}